:020000040800F2
:1000000030AE002099020008A1020008A3020008F7
:10001000A5020008A7020008A902000800000000CD
:10002000000000000000000000000000DD010008EA
:10003000AD0200080000000031020008313D000858
:10004000B3020008B3020008B3020008B3020008BC
:10005000B3020008B3020008B3020008B3020008AC
:10006000B3020008B3020008B3020008B30200089C
:10007000B3020008B3020008B3020008B30200088C
:10008000B3020008B3020008B3020008B30200087C
:10009000B3020008B3020008B3020008B30200086C
:1000A000B3020008B3020008B3020008B30200085C
:1000B000B3020008B3020008B3020008B30200084C
:1000C000B3020008B3020008B3020008B30200083C
:1000D000B3020008B3020008B3020008B30200082C
:1000E000B3020008B3020008B3020008B30200081C
:1000F000B3020008693E0008B3020008B30200081A
:10010000B3020008B3020008B3020008B3020008FB
:10011000B3020008B3020008B3020008B3020008EB
:10012000B3020008B3020008B3020008B3020008DB
:10013000B302000881050008B3020008B3020008FA
:10014000B3020008B3020008B3020008B3020008BB
:10015000B3020008B3020008B3020008B3020008AB
:10016000B3020008B3020008B3020008B30200089B
:10017000B3020008B3020008B30200080000000048
:10018000B3020008B3020008B3020008B30200087B
:10019000B3020008B3020008B3020008B30200086B
:1001A000B3020008B3020008B3020008B30200085B
:1001B000B3020008B3020008B3020008B30200084B
:1001C000B3020008B3020008DFF80CD000F0A8F872
:1001D000004800475957000830AE00202B4B1968E3
:1001E0000868B0E8F04F80F30988BFF36F8F4FF0D5
:1001F000000080F311887047000000000648006886
:10020000006880F3088862B661B6BFF34F8FBFF312
:100210006F8F00DF00BF00BF08ED00E0DFF80C00CB
:10022000016841F470010160704700BF88ED00E093
:10023000EFF30980BFF36F8F144B1A681EF0100F95
:1002400008BF20ED108A20E9F04F106008B44FF08D
:10025000500072B680F31188BFF34F8FBFF36F8FDA
:1002600062B609F06DF84FF0000080F3118808BC09
:1002700019680868B0E8F04F1EF0100F08BFB0EC26
:10028000108A80F30988BFF36F8F70472400002025
:10029000EFF3058070470000064880470648004796
:1002A000FEE7FEE7FEE7FEE7FEE7FEE7FEE7FEE726
:1002B000FEE7FEE7153E0008C901000840EA010319
:1002C0009B0703D009E008C9121F08C0042AFAD20C
:1002D00003E011F8013B00F8013B521EF9D27047D0
:1002E000D2B201E000F8012B491EFBD27047002278
:1002F000F6E710B513460A4604461946FFF7F0FF25
:10030000204610BD30B504460020034600E05B1CCB
:10031000934203D2E05CCD5C401BF8D030BD0000BE
:10032000064C074D06E0E06840F0010394E8070042
:1003300098471034AC42F6D3FFF74AFF98A0000864
:10034000B8A0000830B58C1810F8012B12F00F037C
:1003500001D110F8013B120906D110F8012B03E07E
:1003600010F8015B01F8015B5B1EF9D101E001F8B7
:10037000013B521EFBD1A142E6D3002030BD00005C
:100380004B496FF0706210B5D1F8043323F4403359
:10039000C1F80433D1F8043344682343C1F804336B
:1003A00001684B6823F480734B60016803694C68F3
:1003B00044EA03234B6001684B6823F040734B60B1
:1003C000016884684B6823434B6001688B6823F4A1
:1003D00000638B600168C4688B6823438B60816A0B
:1003E000D14201688A6822F070628A6001680DD08B
:1003F000836A8A681A438A6001688A6822F04052D8
:100400008A600168C36A8A681A4302E08A6822F037
:1004100040528A6001688A6822F002028A6001689C
:1004200082698B6843EA42028A60016A0029016896
:100430004A6815D042F400624A6001684A684FF485
:10044000604322F460424A60016893FAA3F3426A6F
:10045000B3FA83F44B68521EA24013434B6002E090
:1004600022F400624A600168124BCA6A22F47002E8
:10047000CA620168848BCA6A03EB04531A43CA62D6
:1004800001688A6822F400728A600168026B8B68D6
:1004900043EA42228A6001688A6822F480628A60A4
:1004A000016840698A6842EA8020886010BD0000C7
:1004B000002001400000F0FF0146014802F0E5B8CD
:1004C0003C3F0020044810B502F0F1F8042801D0A8
:1004D000012010BD002010BD3C3F002038B5012098
:1004E0008DF800009DF80000012801D0022038BDE1
:1004F000064802F0F2F8040006D104484FF4006107
:1005000001F08AFF00B10124204638BD3C3F0020A5
:1005100038B50024009313460A460146034802F00A
:1005200051F900B10124204638BD00003C3F0020B5
:1005300038B50024009313460A460146034802F0EA
:1005400019FA00B10124204638BD00003C3F0020CC
:1005500038B50446006800F58050816941F4801187
:100560008161206800F5805080690090012000F0D2
:1005700097FA2068009900F58050816138BD00002D
:10058000014800F05CBB0000607000202DE9F041E4
:10059000044621B14FF40061C800C4E90201E069DA
:1005A0000025002862D028462368D4E9021C3A4F6F
:1005B00040261A6841EA0C0101433A4041F40070B8
:1005C0001043186020680768012000F069FA20686D
:1005D00007602068466020684668012000F060FAE5
:1005E00020684FF641724660206885602068C560CB
:1005F00021688869104040F0800088612068866921
:10060000012000F04DFA206886612068C5612068ED
:10061000C569012000F044FA2068204B2049C561DB
:10062000206800F5805082691A401143816120687A
:1006300000F580508569012000F032FA20681949E0
:1006400000F580508561206800F5805001602068C9
:1006500000F580500568012000F022FA206800F5BE
:1006600080500560A069012803D009E04FF4806044
:100670009AE720680C4A00F58050C1691143C161B6
:1006800060690A4982880A640278D0F8010042EA67
:1006900000204864BDE8F0810F8120FF233FDEF891
:1006A000040020028020C1024000010000800240BE
:1006B000002200F001B800000E4B70B505465C7AD0
:1006C0000120012C15D85E7A002403F108009C5506
:1006D0005E7A03EB860675605D7A2A54587A421C6E
:1006E0005A723A232F22303008704B7020468A709D
:1006F000CC7070BD543E0020F8B50025009590F8F0
:100700003C20012A18D0012280F83C200A680723E7
:100710004E4C0668092A1AD90A3A02EB4207F268D7
:10072000BB409A43F2600E680268A64206D10B7A7B
:10073000D66846EA036308E00220F8BD0A3E8B68EB
:10074000D76806EB4606B3403B43D3600EE002EBAE
:1007500042073269BB409A43326103680E788A6867
:100760001F6906EB4606B2403A431A614A681F23E6
:10077000072A13D20668521E02EB8207726BBB4037
:100780009A43726303680E790A88761E5F6B92B291
:1007900006EB8606B2403A435A6327E006680D2A04
:1007A00012D2D21F02EB8207326BBB409A433263F4
:1007B00002680E790B88F61F176B9BB206EB860654
:1007C000B3403B43136311E00D3A02EB8207F26A38
:1007D000BB409A43F26202680E790B880D3ED76ADD
:1007E0009BB206EB8606B3403B43D362184A0368CC
:1007F000934208D10B68122B05D1D2F8043343F48D
:100800008003C2F80433036893421AD10B68A342F1
:1008100001D0112B15D1D2F8043343F40003C2F8F0
:1008200004330968A1420CD10A490B4A0968B1FB9B
:10083000F2F101EB8101490000E0491E009100291D
:10084000FBD180F83C500020F8BD000012000010E1
:10085000002001406400002040420F0070B50400F9
:100860004FF0000503D0206C002610B107E00120F6
:1008700070BD6664204684F83C6000F019F8206C76
:10088000C00610D4206C20F4885040F00200206490
:100890002046FFF775FD6664206C20F0020040F0F2
:1008A0000100206400E0012584F83C60284670BD0A
:1008B00070B5124E002205687123114903241148B6
:1008C000B54286B007D10D6845F480750D600968A2
:1008D00001F4807109E00C4EB5420DD10D6845F46C
:1008E00000750D60096801F4007100930591694677
:1008F000CDE9014200F080FC06B070BD002001404F
:100900004438024000000240002101402DE9F0413E
:10091000040004D094F83C00002518B107E0012041
:10092000BDE8F081204684F83D5000F095F80220A3
:1009300084F83C002068016821F002010160206811
:10094000016841F00101016000F04CFD03260746FB
:1009500005E000BF00F046FDC01B0A2863D82068F0
:100960004068C007F6D020684168C90769D0A1690E
:100970000129016840D021F080010160E06901286F
:10098000206801683BD021F040010160206A012805
:100990002068016836D021F020010160606A0128DA
:1009A0002068016831D021F010010160A06A01289F
:1009B000206801682CD021F008010160E06A01285C
:1009C0002068016827D021F004010160D4E90110FA
:1009D000D4E903C26769491E236840EA0C003A4320
:1009E00010430843D8612068016821F001010160CB
:1009F00000F0F8FC07461CE041F08001BDE741F043
:100A00004001C2E741F02001C7E741F01001CCE707
:100A100041F00801D1E741F00401D6E700F0E2FC23
:100A2000C01B0A2805D984F83C60032084F83D5097
:100A300076E720684068C007F0D120684068C007AA
:100A400003D0042084F83C0069E70120256484F881
:100A50003C00002064E7000000B5006887B00D4945
:100A6000884214D10C48016841F0007101600068AF
:100A70000221002200F000700590032009238DE878
:100A80000700CDE903030548694600F0B5FB07B050
:100A900000BD00000064004040380240000C0240ED
:100AA00031B500F09FFC044600F09CFC0099001B4F
:100AB0008842F9D338BD2DE9F04390F84540002530
:100AC000012C0DD04FF0010980F84590022644F228
:100AD000F45780F844605E1E4FF0004C816217E0CE
:100AE0000220BDE8F083C5EBC51801EB451408EB07
:100AF000480802EB8808C4F800C0B542C4E9017890
:100B000004D204F12008C4F80C8000E0E1606D1C00
:100B10009D42E8D30368002403F58053D96080F830
:100B2000449080F845402046DBE700002DE9F04383
:100B300090F8454091460022012C09D0C16201265F
:100B4000022480F845605D1E80F84440E70422E0FE
:100B50000220BDE8F08300BFC2EBC21404EB4408DE
:100B600001EB421409EB880C2760C4F808C0D0F8E8
:100B70001CC0BCF1000F05D1D4F800C04CF4400CEF
:100B8000C4F800C0AA4204D204F1200CC4F80CC07E
:100B900000E0E160521C9A42DED30268002302F5B5
:100BA0008052116180F8446080F845301846D0E7E3
:100BB000704730B590F845100023012908D0012274
:100BC00080F84520022180F84410816A00241AE050
:100BD000022030BD0D685B1CC5F30125022D0AD033
:100BE0000D6815F4407F09D0836B5B1C012BC0E9B5
:100BF0000D1313D013E08263016302E0856B6D1C5B
:100C00008563C96881620D68002D01DB042BE1D387
:100C100080F8442080F84540012030BD01630B6816
:100C2000C3F30D431B1FC363036B9B680364C96855
:100C3000816280F8442080F84540002030BD70B5C6
:100C400004460068002500F58050012641694906E8
:100C500008D5204600F0C0F92068402100F58050FA
:100C6000416109E04069C0070AD0204600F085FADA
:100C7000206800F58050466184F8446084F845504F
:100C80004FF48031206800F580504161206800F504
:100C90008050406900040CD52046FFF789FF20688A
:100CA0004FF4004100F58050416184F8446084F8BD
:100CB000455070BD2DE9FC474FF000060400B146D9
:100CC000009603D094F8440018B107E00120BDE875
:100CD000FC87204684F8456000F0E4F86748016826
:100CE00041F480410160006800F480400190644854
:100CF000016821F4000101600168226A114301606A
:100D0000206800F58050016841F00101016000F0A9
:100D100069FB4FF4FA77054609E000BF00F062FB7B
:100D2000401BB84203D9032084F8440068E02068DF
:100D300000F580500068C007F0D12068006920F0FD
:100D40001C0501F045F94F4A4F4902448A4202D23C
:100D500045F0080516E04D494D4A0144914202D242
:100D600045F00C050EE04B4A4B4902448A4209D338
:100D70004A4A4B491044884202D245F0040501E03A
:100D800045F010052068056100214FF4004220461F
:100D900000F0F4F94FF00105B0BBFF20FFF780FE33
:100DA000606890B300F01EFB804641F28837012155
:100DB0006A46204600F0CCF800F014FBA0EB0800D7
:100DC000B84217D800984007F1D5002120464FF4CB
:100DD000805200F0D3F9B8B900F004FB80466A46AF
:100DE0000121204600F0B4F800F0FCFAA0EB080066
:100DF000B8420BD901212046FFF7C8FB84F84450C4
:100E0000032084F8456062E724E018E0009880063B
:100E1000E5D510216A46204600F09AF8D0B900982E
:100E2000410703D54FF40061E16000E0E660800710
:100E300001D5A66019E04FF48040A06015E0D4E928
:100E40000210C00840EA510082B22046002100F0A2
:100E500095F930B101212046FFF798FB84F8445002
:100E600034E740F6FF70FFF71BFE49462046FFF7C8
:100E70008DFB84F84450002029E7000044380240EC
:100E80000438014000D3CEFEC0E1E40040F1E9FDAA
:100E900040787D0100796CFC005A6202001F0AFA5A
:100EA00080F0FA02F0B5006887B02349884241D14A
:100EB0002248016841F000710160016801F0007191
:100EC0000591016841F080610160016801F0806175
:100ED0000591016841F0006101600068022400256D
:100EE000694600F00060059003260B2732208DE84C
:100EF000F100134800F080F9862069468DE8F10082
:100F0000104800F079F9200369468DE8F1000E4899
:100F100000F072F94FF4205069468DE8F1000B485B
:100F200000F06AF9002205213D2000F0BDFB3D20C4
:100F300000F0AEFB07B0F0BD008002403038024048
:100F40000008024000000240000402400018024075
:100F50002DE9F047044690F84400914682281DD0C0
:100F600082224FF6FF7084F844204FF4F863226821
:100F700003EA8111258A136900EAC52003F01C03E6
:100F80001843014321F0020040F00105156100F013
:100F900029FA012706464FF4803811E00220BDE807
:100FA000F08700BF00F01EFA801B404506D30020EA
:100FB00084F8447084F845000320F0E72068056950
:100FC000E807EFD12068406981B2C9F8001084F8C1
:100FD00044700020E3E700000148006804F006BF09
:100FE0006C000020F8B5044690F84500012839D07F
:100FF000012584F84550022084F84400206800262A
:10100000016841F0080101602068006800902846EE
:10101000FFF746FD2168009808602068016841F0EC
:10102000040101602068006800900120FFF738FD8E
:101030002168009808602046FFF78AFA206800F5CA
:101040008050816941F400518161206800F5805031
:10105000816941F00201816184F84450002084F8E4
:101060004560F8BD0220F8BDF0B590F8452000239A
:10107000012A13D0012680F84560022280F844201E
:101080004FF0000561B1C76A3A68002A0BDA1221F5
:1010900080F8441080F845500120F0BD0220F0BDDA
:1010A00080F84460F6E740F2F454A1420BD9B1FB5A
:1010B000F4F204FB121CB1FBF4F2BCF1000F00D0FF
:1010C000521C012A45D13A68C1F30C0142F040524A
:1010D0003A60C26A5160C16A0A6842F000420A601E
:1010E000C16AC968C16236E0D7F800C02CF0405C24
:1010F000C7F800C033B9C76AD7F800C04CF0805CAD
:10110000C7F800C0D0F82CC0571EBB42CCF8044032
:1011100014D1C76AC2F1010ED7F800C0CEEBCE1EC3
:101120004CF0005CC7F800C00EEB4E0ED0F82CC09F
:1011300001EB8E07C7F30C07CCF80470C76AD7F829
:1011400000C04CF0004CC7F800C0C76A5B1CFF68C9
:10115000C7629342C8D3016801F580514A695207BA
:1011600005D504224A61016801F580514D6080F87F
:10117000446080F845500020F0BD70472DE9F041F3
:10118000044690F8440042281ED042204FF6FF73D8
:1011900084F8440096B220684FF4F867258A07EA7D
:1011A00081110269466103EAC520236802F01C022E
:1011B0001043014341F003051D6100F013F90127BD
:1011C00006464FF4803811E00220BDE8F08100BFF0
:1011D00000F008F9801B404506D3002084F84470D5
:1011E00084F845000320F0E720680569E807EFD19F
:1011F00084F84470E9E700002DE9F84FDFF89CE13E
:1012000000224FF001084FF0030B4FF00F0A00BF10
:101210000B6808FA02F42340A34271D14D68022DF5
:1012200001D0122D0FD1D5080E69570700EB8505A7
:10123000A9462D6AFF0E0AFA07FCBE4025EA0C05F6
:101240002E43C9F820600F79550006680BFA05FC9B
:1012500007F0030726EA0C06AF40374307604E68E5
:10126000012E05D0022E03D0112E01D0122E0ED148
:101270008668CF6826EA0C06AF4037438760466829
:101280000F79A643C7F30017974037434760C468F8
:101290008E6824EA0C04AE402643C6604C68E40025
:1012A00075D53F4C256845F480452560246822F0BB
:1012B0000306950704F4804400943A4C2D0F26440D
:1012C000D6F80848DFF8E0C00AFA05F7604524EAD6
:1012D000070401D100272EE0344FB84201D1012785
:1012E00029E0334FB84201D1022724E0314FB84200
:1012F00001D103271FE0304FB84202D104271AE082
:1013000045E02E4FB84201D1052714E02C4FB842DA
:1013100001D106270FE02B4FB84201D107270AE081
:10132000294FB84201D1082705E0284FB84201D122
:10133000092700E00A27AF4027437546C6F808781A
:101340004E68DEF80040F60324EA030400D51C438F
:10135000124E2C60361D4D683468AD0324EA030438
:1013600000D51C430D4F346008374D683C68ED02D2
:1013700024EA030400D51C43084D3C600C354E683C
:101380002C68B60224EA030400D51C432C60521CCE
:10139000102AFFF43DAFBDE8F88F0000003C01408B
:1013A0004438024000300140000002400004024086
:1013B00000080240000C02400010024000140240ED
:1013C00000180240001C024000200240002402409D
:1013D00042694A40426170470AB18161704709041D
:1013E000FBE7000001480068704700006000002033
:1013F00030B590F84120202A24D190F84020012ACD
:1014000020D0012380F84030242280F8412020237E
:1014100000240268156825F001051560026815684A
:1014200025F480551560026815680D431560016844
:101430000A6842F001020A6080F8413080F84040BA
:10144000002030BD022030BD30B590F84120202A68
:1014500022D190F84020012A1ED0012380F840308C
:10146000242280F84120202400250268136823F0FC
:10147000010313600268136823F4706343EA0121D7
:10148000116001680A6842F001020A6080F8414078
:1014900080F84050002030BD022030BD70B50400FF
:1014A00004D094F84100002510B106E0012070BD81
:1014B000204684F8405000F04DF8242084F8410084
:1014C0002068016821F001010160D4E9001020F0DA
:1014D000706008612068816821F400418160E068E3
:1014E00021680128A06806D040F404408860E068C4
:1014F000022803D006E040F40040F7E721684FF4EB
:101500000060486020212068114A4368134343600B
:101510002068C26822F40042C26054F8106B0DCCFF
:10152000104340EA0320F06054F81C3CD4E9000268
:101530001043186054F81C0D026842F0010202606A
:10154000656484F84110256384F84250002070BD22
:101550000080000210B5006886B00D49884214D1A1
:1015600012210122032304244FF410708DE81F0080
:1015700008486946FFF740FE0748016841F400113A
:101580000160006800F40010059006B010BD000076
:101590000054004000040240403802400248016804
:1015A000491C01607047000060000020032010B556
:1015B00000F09AF8002000F005F800F03DF8002057
:1015C00010BD000010B5002201462D2088B000F0AB
:1015D0006BF82D2000F05CF81348016841F480712D
:1015E0000160006805A900F480700690684600F06C
:1015F000CFFC00F0F3FC0D49400000220C4CB0FB86
:10160000F1F10C4840F2E7330460C0E90332491EAF
:10161000C0E9011201F0A0FA10B1012008B010BD1C
:10162000044801F0B5FAF9E74038024040420F00A3
:1016300000200040FC710020032010B500F054F899
:1016400000226FF00B00114600F02EF800226FF020
:101650000A00114600F028F800226FF00900114638
:1016600000F022F80022501F114600F01DF8002261
:10167000101F114600F018F800220F21901E00F0F4
:1016800013F800220F21BDE81040501E00F00CB8E6
:10169000410900F01F028900012001F1E021904082
:1016A000C1F80001704700000E4BF0B41B680D46F6
:1016B000C3F30223C3F10706042E00D90426191D23
:1016C000072901D2002300E0DB1E012404FA06F101
:1016D0009C40491E2940641E994014402143F0BC9F
:1016E00001F0D6BD0CED00E0064900F0070210B590
:1016F0004FF6FF040868044B204040EA02201843DC
:10170000086010BD0CED00E00000FA051848F8B5BF
:10171000016841F0805101600068164C00F0805073
:101720000090206840F480302060FFF75BFE4FF4AB
:101730007A76054605E000BFFFF754FE401BB04235
:101740000FD86068C003F7D5206840F400302060EF
:10175000FFF748FE054606E0FFF744FE401BB04297
:1017600001D90320F8BD60688003F5D50020F8BDDD
:1017700040380240007000402DE9F84F04460078E0
:10178000DFF828844FF000063546C0070ED0D8F8A1
:10179000001021F40001C8F80010D8F80010626BA6
:1017A0001143C8F80010606B00B9012620680003DF
:1017B00010D5FE48E26B8430016821F440111143DA
:1017C0000160E06BB0F5801F01D010B102E001268E
:1017D00000E001252068C00210D5F448226C843056
:1017E000016821F4400111430160206CB0F5800FC5
:1017F00001D010B102E0012600E001252068C101FE
:1018000000D50126800659D5E8483830016841F0F6
:10181000805101600068DFF8989300F080500090DC
:10182000D9F8001041F48071C9F80010FFF7DAFD13
:10183000074604E0FFF7D6FDC01B64287ED8D9F820
:101840000000C005F6D5D94F6837386810F44070ED
:1018500023D0218E01F4407181421ED0386839684E
:1018600020F4407041F480313960396821F48031CE
:10187000396038603868C0070FD0FFF7B3FD814684
:1018800041F2883A06E000BFFFF7ACFDA0EB09018A
:101890005145D3D838688007F6D5206BC0F30121B5
:1018A00003297CD0D8F8001021F4F811C8F80010F2
:1018B000218E3868C1F30B01084338602078C006D8
:1018C00009D5BA488430016821F08071016001684F
:1018D000A26B114301602188B4488830490405D5C2
:1018E000626E016821F440311143016021880904CE
:1018F00005D5A26E016821F44021114301602168E1
:10190000C90305D5E26E016821F44011114301605D
:101910002168890305D5226F016821F44001114334
:1019200001602178490605D5626C016821F0030148
:10193000114301602178090607D500E001E1A26C9E
:10194000016821F00C01114301602188C90505D50A
:10195000E26C016821F030011143016021888905A2
:1019600005D5226D016821F0C00111430160218875
:10197000490505D5626D016821F44071114301608C
:101980002188090505D5A26D016821F44061114344
:1019900001602188C90407D5E26D016800E023E0F9
:1019A00021F44051114301602188890405D5226E3C
:1019B000016821F44041114301602168490205D5C5
:1019C000A26F016821F080611143016021688902E2
:1019D00015D5E26F016821F0006111430160E16FEC
:1019E000B1F1006F0AD00AE0724AD8F80030104016
:1019F00023F4F8120243C8F8002059E701252168B2
:101A00000A0700D50125490305D5626F016821F059
:101A10004071114301602168090206D5D4F8802085
:101A2000016821F0805111430160012E4FF4403BC9
:101A30004FF070694FF0E04A03D02068B0F1007FAA
:101A40007ED15A4E083E306820F080603060FFF74B
:101A5000C9FC074605E000BFFFF7C4FCC01B6428B3
:101A60006FD85248083800680001F5D42078DFF8B4
:101A70003CE1C0070EF17C0E33D0606B88BBDEF812
:101A800000209BFAABF7DEF8000099FAA9FCB7FA40
:101A900087F847F6C07602F44032616896FAA6F7F6
:101AA00022FA08F2BCFA8CF8B7FA87FC9BFAABF67C
:101AB00000F0706001FA0CF1B6FA86F699FAA9F70F
:101AC00020FA08F0B2409AFAAAFCA668B7FA87F79B
:101AD0001143B840BCFA8CF2014396403143CEF832
:101AE00000102068010303D5E16BB1F5801F05D01C
:101AF000C00241D5206CB0F5800F3DD1DEF800006A
:101B00009BFAABF7DEF8003047F6C07600F44030C1
:101B1000B7FA87FC616896FAA6F620FA0CF099FAF3
:101B2000A9FC9BFAABF7BCFA8CF8B6FA86F69AFADF
:101B3000AAFCB7FA87F7B140B840BCFA8CFC01E0C8
:101B40008CE006E1E6689AFAAAF203F0E043B2FA02
:101B500082F7164A06FA08F623FA0CF30143843298
:101B6000BB4031431943CEF800101068616A20F081
:101B70001F00491E084310602068C00139D5DEF8F7
:101B8000001099FAA9F0DEF8003047F6C0769AFA0C
:101B9000AAFC9BFAABF796FAA6F601F07061BCFAC4
:101BA0008CFCB7FA87F7B0FA80F005E008380240FD
:101BB00000700040FFFCFF0FC1400091B6FA86F8AC
:101BC000216999FAA9F6606803F0E042B6FA86F650
:101BD000B94000FA08F0084300999AFAAAF722FAE5
:101BE0000CF2B140B7FA87F60843B2401043CEF882
:101BF00000002068800120D547F6C07004F108017C
:101C000090FAA0F260689BFAABFCB2FA82F346C984
:101C1000BCFA8CFC984099FAA9F806FA0CF69AFAE4
:101C2000AAF7B8FA88FC304302FA0CF2B7FA87F642
:101C30001043B1400843CEF800007B4E306840F0BE
:101C400080603060FFF7CEFB074604E0FFF7CAFB79
:101C5000C01B64287DD830680001F7D5002D79D0ED
:101C6000714D286820F080502860FFF7BBFB0646C6
:101C700005E000BFFFF7B6FB801B642869D86A48FF
:101C80000068C0438000F5D56748216888300A03A2
:101C900001D5E26B1AB1C9023CD5216CD1BB0268F7
:101CA0009BFAABF647F6C071B6FA86F7066802F4FF
:101CB000403291FAA1FC6169FA4099FAA9F7BCFA9D
:101CC0008CFC9BFAABF501FA0CF1B7FA87F89AFA9B
:101CD000AAF7B5FA85FCA56906F0E04602FA0CF20F
:101CE000B7FA87F79AFAAAF3FE4011434E4A05FA6B
:101CF00008F5B3FA83F38C329E40294331430160E7
:101D00006FF0FF071168A36A21F4F85107EB032372
:101D1000194311602168890235D5E16FB1F1006F77
:101D200031D1016899FAA9F2056847F6C07601F049
:101D3000706196FAA6F7B2FA82F29AFAAAF69BFABC
:101D4000ABFC21FA02F8216AB6FA86F6BCFA8CFCE2
:101D500001E060E066E06269B7FA87F701FA0CF12A
:101D600099FAA9FCBA4005F0E0459AFAAAF3BCFA40
:101D70008CF7F5400A4308FA07F1B3FA83F30A43F4
:101D80009D402A4302602178090736D50168026820
:101D90009BFAABF799FAA9FC47F6C07302F44032FC
:101DA000214DB7FA87F893FAA3F7636922FA08F28C
:101DB000BCFA8CF8B7FA87FC9BFAABF601F07061BD
:101DC00003FA0CF3B6FA86F621FA08F199FAA9F7A4
:101DD000B2409AFAAAFCE669B7FA87F78C35134342
:101DE000B940BCFA8CF20B43964033430360286839
:101DF000E16A20F44030084328600B4C206840F032
:101E000080502060FFF7EEFA054607E0FFF7EAFA98
:101E1000401B642802D90320BDE8F88F2068C04326
:101E20008000F3D40020F7E7003802402DE9F047A6
:101E3000DFF84C8105460E46D8F8000000F00F0090
:101E4000B0420CD2D8F8001021F00F013143C8F88D
:101E50000010D8F8000000F00F00B04265D12878DB
:101E6000484C800705D5A968206820F0F000084399
:101E700020602878C00747D042496868083901289F
:101E800016D00968022816D0890700294DDA216882
:101E900021F0030101432160FFF7A4FA69680746B6
:101EA00041F2883001290FD00229814619D027E05C
:101EB00009688903E9E78901E7E700BFFFF792FABC
:101EC000C11B494501D918E081462068C0F3810053
:101ED0000128F3D118E000BFFFF784FAC11B494580
:101EE0000BD82068C0F381000228F5D10CE000BFB8
:101EF000FFF778FAC11B494502D90320BDE8F087F6
:101F0000206810F00C0FF3D1D8F80010404601F013
:101F10000F01B1420BD9016821F00F01314301607B
:101F2000006800F00F00B04201D00120E6E72878F9
:101F3000400705D5E968206820F4E0500843206098
:101F40002878000706D52869216821F4604141EA14
:101F5000C000206000F072F82168F02292FAA2F22C
:101F600001F0F001B2FA82F2D140074A515CC84058
:101F7000064908600020FFF725FB0020BEE70000AF
:101F8000003C024008380240449E000864000020E3
:101F90000D4A0F2330B503604FF4E0540B4B156826
:101FA00005F003054560156805F0F00585601568C6
:101FB00005F4E055C560126804EAD20202611868AF
:101FC00000F00F00086030BD08380240003C0240BD
:101FD00001480068704700006400002008484FF482
:101FE000E052016892FAA2F2064801F4E051B2FA16
:101FF00082F2D140044A0068515CC840704700003A
:102000000838024064000020549E000808484FF43D
:102010006042016892FAA2F2064801F46041B2FA05
:1020200082F2D140044A0068515CC8407047000009
:102030000838024064000020549E00081D4930B555
:102040001D48096811F00C011AD04310042916D05C
:10205000082915D1174947F6C072091F0C680D6889
:1020600004F03F046D020CD50D68B3FBF4F092FA56
:10207000A2F31540B3FA83F2D54068430BE018464B
:1020800030BD0B68B0FBF4F092FAA2F41340B4FA3E
:1020900084F2D340584309684FF4403292FAA2F2D6
:1020A00001F44031B2FA82F2D140491C4900B0FB40
:1020B000F1F030BD083802400024F4002DE9F84F5B
:1020C000DFF84C93054600780027A9F1040AAAF12D
:1020D0000404C0074CD0D9F800104846C1F3810170
:1020E000012908D00068C0F3810002280AD1DAF87B
:1020F0000000400206D52068800339D568680028B2
:1021000070D035E06868B0F5803F0BD010B1B0F505
:10211000A02F11D0206820F480302060206820F4A7
:10212000802002E0206840F480302060686890B130
:10213000FFF758F906460AE0206840F48020206046
:10214000F0E700BFFFF74EF9801B642876D82068BF
:102150008003F7D50CE0FFF745F9064605E000BF20
:10216000FFF740F9801B6428F0D820688003F7D47B
:102170002878800746D5D9F8001048464FF0F8086F
:1021800011F00C0F08D00068C0F3810002280AD1BA
:10219000DAF80000400206D42068800716D5E86807
:1021A00001281FD112E0E868002820681BD040F009
:1021B00001002060FFF716F9064604E0FFF712F968
:1021C000801B0228C2D820688007F7D528692268BA
:1021D00098FAA8F1B1FA81F1884022F0F8010143A0
:1021E00021600FE011E120F001002060FFF7FAF814
:1021F000064604E0FFF7F6F8801B0228A6D8206800
:102200008007F7D42878000729D5814869696C30A0
:1022100000298046016812D041F001010160FFF7FA
:10222000E1F8064605E000BFFFF7DCF8801B022856
:1022300004D8D8F800008007F6D510E089E021F036
:1022400001010160FFF7CEF8064604E0FFF7CAF887
:10225000801B02287DD8D8F800008007F6D42878A3
:1022600040076BD5DFF8A88108F13808D8F80000DE
:10227000C0000BD4D8F8001041F08051C8F800100D
:10228000D8F80000012700F08050009061480168F4
:10229000C90512D40168834641F480710160FFF7DB
:1022A000A1F8064605E000BFFFF79CF8801B6428F4
:1022B0004FD8DBF80000C005F6D5554EA868683643
:1022C00001280AD008B1052811D0306820F001009B
:1022D0003060306820F0040002E0306840F0010017
:1022E0003060A868A0B1FFF77DF883460CE0306845
:1022F00040F004003060F0E7FFF774F8A0EB0B014A
:1023000041F28830814278D830688007F4D50EE0F9
:10231000FFF768F8834607E0FFF764F8A0EB0B01CE
:1023200041F28830814268D830688007F4D42FB1F8
:10233000D8F8001021F08051C8F80010A869E8B35F
:10234000D9F80010C1F3810102295ED0022820686B
:1023500000E052E020F08070206003D0FFF742F8E8
:1023600005464DE0FFF73EF8064604E0FFF73AF871
:10237000801B022841D820688001F7D447F6C0703E
:102380004FF0FF36D5E9091390FAA0F24FF4403729
:10239000B2FA82F297FAA7F706EB5303D5E90706DC
:1023A00091404FF0706CEA6AB7FA87F79CFAACF587
:1023B000BB4030431943B5FA85F300E023E09A406F
:1023C0000843104340F00050CAF80000206840F075
:1023D00080702060FFF706F8054604E0FFF702F87A
:1023E000401B022809D820688001F7D50BE000BF08
:1023F000FEF7F8FF401B022802D90320BDE8F88F42
:1024000020688001F4D40020F8E70120F6E70000FE
:102410000838024000700040FEB504460D46416C8D
:10242000032084F83400032920D0B5F5805F1DD047
:10243000B5F5006F05D045B1A06B40F00060A0631A
:1024400009E0204601F0BCFB02E0204601F091FBD0
:10245000A16B0143A163A06B012658B1216840F232
:10246000FF50886384F834600120FEBDA06B40F00B
:102470008050E4E7211DD4E905070EC9CDE90050DD
:102480000297206801F016FA84F834600020FEBD3F
:10249000F0B5426E120E93090B70C2F3830402F082
:1024A00003024C708A70426E120CCA70B0F864203D
:1024B000120A0A7190F864204A714FF6FF73826E17
:1024C000120E03EA0212CA80CB88826EC2F3074260
:1024D00014092343CB8002F00F020A72B0F868207F
:1024E0000025C2F30722D3094B72C2F38014C2F352
:1024F0004016C2F300178C72CE720F734D73012316
:10250000446C4FF400766CB1012C46D0026840F266
:10251000FF519163816B41F08051816380F83430C9
:102520000120F0BD9207120D0A610C6990F8682035
:1025300044EA82020A610C69C26E120E9709C2F364
:10254000C20C3C430C6102F0070281F814C04A75CA
:10255000C26EC2F30742940757098F75640FC2F326
:102560008202CA750C760A7EB0F86C40C4F3072468
:1025700042EAD4120A760A69521C42650F7EBF1CD9
:10258000BA4042650F7A03FA07F787654FEA572C7E
:1025900002FB0CF2C0E917261CE090F868209206B6
:1025A000920A0A610C69C26E120E44EA02220A61A2
:1025B0000C69C26EC2F3074214430C610A69B0F899
:1025C0006C40521C4FEA82224265C4F30724C0E9E2
:1025D00016620666C4F380124FEA84644A764FEAB4
:1025E00054648C7690F86C208C7E4FEAD21602F000
:1025F0007F0244EA06048C76CA7650F8702F4FEAC0
:1026000012624FEAD2140C77C2F34116C2F382076A
:102610004FEA82724E778F774FEA1272CA77CC7F79
:102620000268C2F3074244EA9214CC77C2F3401620
:1026300002F0010281F8206081F8215081F8222007
:102640000288C2F307224FEAD21481F82340C2F372
:102650008015C2F34016C2F30017C2F3810C02F0DA
:10266000030281F8245081F8256081F8267081F8F2
:1026700027C081F8282000784FEA500081F829000F
:1026800081F82A304FF00000F0BD426C0A60826C85
:102690004A60C26C8A60026DCA60426D0A61826DD6
:1026A0004A61C26D8A61006EC8610020704770B5D2
:1026B000B0F85010002504460068090400F046FFF9
:1026C00018B1A16B0143A16304E02068002101F06F
:1026D000EBF80546C5F3432070BD70B5040004D087
:1026E00094F83400002510B105E0012070BD2046AB
:1026F000257700F03BF8032084F83400204600F0F2
:1027000007F80120A563256384F83400002070BD1C
:102710003EB504467620002100910B460A46CDE9DD
:102720000110206801F0C6F82068416821F480712A
:102730004160206801F0CFF82068416841F4807161
:1027400041600220FEF7ACF9204601F0BFF94FF0DE
:10275000010520B9204601F046F9002805D084F88B
:102760003450A16B0143A16301203EBDF0B5006868
:1027700087B0104988421BD10F48016841F40061BD
:102780000160006802240025694600F4006005909D
:1027900003260C274FF4F8508DE8F1000748FEF7A8
:1027A0002BFD042069468DE8F1000548FEF724FD65
:1027B00007B0F0BD002C0140443802400008024040
:1027C000000C02402DE9F04F87B09A4617460E469E
:1027D0000446DDF840B0FEF705FE00903EB194F8E7
:1027E0003400012807D0A06B40F000500FE0A06B30
:1027F00040F000600BE0E16D07EB0A004FF00008CD
:10280000C4F83880884204D9A06B40F00070A063FF
:102810007DE0032084F834002068C0F82C80606CD0
:10282000012800D07F0220684FF4007100F074FD91
:1028300040F2FF594FF0010530B12268C2F83890DC
:10284000A16B0143A16360E002204FF0FF324FEA29
:102850004A239021CDE90310CDE90123CDE9058577
:10286000206801A900F0F0FEBAF1010F06D902209C
:1028700020632068394600F0DBFD04E0256339461B
:10288000206800F0EEFD0028D7D122E0406B000464
:1028900009D50027206801F022F846F827007F1CA0
:1028A000082FF7D32036BBF1000F05D0FEF79AFDB5
:1028B0000099411A59450CD32168C1F83890A06B92
:1028C00040F00040A06384F83450032007B0BDE816
:1028D000F08F2068416B11F4957FD7D0416BC9050B
:1028E00009D5BAF1010F06D9616C032903D000F0B4
:1028F0005FFE0028A1D12068416B090709D5C0F807
:102900003890A06B40F0080028E084F83450012093
:10291000DCE7416B890705D5C0F83890A06B40F023
:1029200002001BE0416B89061AD5C0F83890A06BF5
:1029300040F0200012E000BF00F0D1FFBBF1000F1B
:1029400001C605D0FEF74EFD0099411A594507D33F
:102950002168C1F83890A06B40F00040A063D4E734
:102960002068416B8902E7D4C0F8389084F834506D
:102970000020ABE72DE9F04F87B09A4616460D468A
:102980000446FEF72FFD83463DB194F8340001283C
:1029900007D0A06B40F000500DE0A06B40F000604D
:1029A00009E0E26D002006EB0A01A063914204D920
:1029B000A06B40F00070A0639CE00321814684F886
:1029C00034102168C862606C012800D0760220684B
:1029D0004FF4007100F0A0FC40F2FF584FF00107E7
:1029E00030B12268C2F83880A16B0143A16317E0BF
:1029F000BAF1010F06D9202020632068314600F08B
:102A0000F1FD05E0102020632068314600F003FE50
:102A1000060008D02168C1F83880A06B3043A0635D
:102A200084F8347066E048464FF0FF314FEA4A239D
:102A3000B9469022CDE90407CDE90220CDE9001383
:102A40002068694600F000FE22E0406B40040AD591
:102A50005FF00007206805EB870100F054FF7F1C42
:102A6000082FF7D32035109830B1FEF7BBFCA0EB50
:102A70000B01109881420BD32268C2F83880A06BFA
:102A80003043A06384F83490032007B0BDE8F08F92
:102A90002068416B11F48D7FD7D0416BC90510D5EB
:102AA000BAF1010F0DD9616C03290AD000F080FD45
:102AB00038B123684946C3F83880A26B0243A26349
:102AC00016E02068416B090708D5C0F83880A06B74
:102AD00040F00800A06384F834900BE0416B890754
:102AE0000AD54946C0F83880A06B40F002000CE0DF
:102AF00084F834100120C8E7416BC0F83880C9065B
:102B0000494604D5A06B40F01000A063F0E784F8BC
:102B100034100020B9E704284FF0E020016903D009
:102B200021F004010161704741F00401FAE7401E01
:102B3000B0F1807F10B501D3012010BD4FF0E0242B
:102B400060610F21601700F0A3FB0020A061072146
:102B5000216110BD7047704710B5040003D094F890
:102B60003D0010B107E0012010BD002084F83C00BA
:102B7000204600F00CF8022084F83D002068211D5A
:102B800001F078F9012084F83D00002010BD704765
:102B90000168CA6842F00102CA600068016841F039
:102BA0000101016000207047704770B5044600685D
:102BB00000250169C943890715D4C168C94389073C
:102BC00011D4EA1E02610121217720688069800703
:102BD000204602D0FFF7E8FF04E000F0A5F8204609
:102BE00000F0A3F8257720680169C943490717D485
:102BF000C168C943490713D402216FF0040202617E
:102C000021772068806910F4407F204602D0FFF7CA
:102C1000CBFF04E000F088F8204600F086F8257726
:102C200020680169C943090716D4C168C943090767
:102C300012D404216FF00802026121772068C06974
:102C40008007204602D0FFF7AFFF04E000F06CF8E9
:102C5000204600F06AF8257720680169C943C90653
:102C600017D4C168C943C90613D408216FF01002F4
:102C7000026121772068C06910F4407F204602D0AD
:102C8000FFF792FF04E000F04FF8204600F04DF807
:102C9000257720680169C943C90708D1C168C943BC
:102CA000C90704D1891E0161204600F03FF8206861
:102CB0006FF080050169C943090607D4C168C9439B
:102CC000090603D405612046FFF744FF2068016927
:102CD000C943C90507D4C168C943090603D40561BE
:102CE0002046FFF737FF20680169C943490609D428
:102CF000C168C943490605D46FF04001016120460F
:102D000000F01EF820680169C94389060BD4C16828
:102D1000C943890607D46FF0200101612046BDE850
:102D20007040FFF718BF70BD7047704700680349D7
:102D3000884201D1FEF732BC7047000000200040FD
:102D4000704710B5040003D094F8690010B107E093
:102D5000012010BD002084F86800204600F026F80D
:102D6000242084F869002068016821F001010160D5
:102D7000204601F069F90128EBD0606A10B12046C5
:102D800001F0DEF82068416821F49041416020683C
:102D9000816821F02A0181602068016841F0010109
:102DA00001602046BDE8104001F02EB92DE9F04148
:102DB000194A02240068012518490326DFF86080BB
:102DC0000727904286B010D1086840F400300860B0
:102DD0000868694600F40030059008208DE8F1008D
:102DE0001048FEF709FA20200CE00F4A90420FD15C
:102DF000086840F480200860086800F4802005908E
:102E00004FF4407069468DE8F1004046FEF7F4F952
:102E100006B0BDE8F08100000044004040380240A8
:102E2000000C024000000240004800407FB51448FA
:102E30000024124901252A040160C0E9012404612B
:102E4000846110490462C0E90A14C460C561456127
:102E50000463FDF703FD18B153210BA001F052FAF2
:102E600007486946CDE900450294FDF745FC002876
:102E700003D05D2104A001F045FA7FBD0020014090
:102E8000603E00200100000F2E2E2F5372632F6131
:102E900064632E63000000007FB5144800241249CB
:102EA00001252A040160C0E90124046184611049FC
:102EB0000462C0E90A14C460C56145610463FDF79A
:102EC000CDFC18B176210BA001F01CFA0748694629
:102ED000CDE900450294FDF70FFC002803D08021C6
:102EE00004A001F00FFA7FBD00210140A83E0020A0
:102EF0000100000F2E2E2F5372632F6164632E6327
:102F0000000000000F480623002110B50C4C1A04E5
:102F10000460C0E90131C0E9031241618161C1610E
:102F2000016241628162C162FDF7F0FC002805D0B8
:102F3000BDE810404F2104A001F0E4B910BD00002D
:102F400000640040B87100202E2E2F5372632F634F
:102F5000616E2E63000000000449054810B5FDF7BE
:102F6000A7FB0249491E087010BD00007100002037
:102F70005C9E000800B585B0064914226846FDF73E
:102F80009DF90021684602F099FF0349086005B0E9
:102F900000BD0000849E0008780000203F482DE915
:102FA000F041016886B041F004010160016801F060
:102FB00004010591016841F080010160016801F0A0
:102FC00080010591016841F001010160016801F093
:102FD00001010591016841F002010160016801F001
:102FE00002010591016841F008010160016801F0EA
:102FF00008010591016841F040010160006844F258
:103000008106274F002200F04000314605903846E7
:10301000FEF7E2F9DFF88C80002240214046FEF7FF
:10302000DBF9214900244FF400508DE813001F48BC
:103030006946FEF7E1F801250096CDE9015469469D
:1030400038460394FEF7D8F840200090CDE90154AB
:10305000694640460394FEF7CFF880206946CDE9E3
:10306000000440460294FEF7C7F80221104D4FF4C9
:10307000E8500A238DE8130003226946CDE90323B3
:103080002846FEF7B9F868156946CDE900042846D8
:103090000294FEF7B1F806B0BDE8F0813038024086
:1030A0000004024000180240000011100008024015
:1030B000000002401648002110B5144C0123154AA7
:1030C0000460C0E90121C0E9033141618161C1614E
:1030D0000162FEF7E3F918B14C210FA001F012F9DB
:1030E0000B480021FEF784F918B153210AA001F022
:1030F00009F907480021FEF7A7F9002805D0BDE827
:1031000010405A2104A001F0FDB810BD0054004049
:10311000F03E00200D0300602E2E2F5372632F69A6
:1031200032632E6300000000FEB5254CC027A823A3
:10313000251D0122277028216370FF20A2702F1DFA
:10314000E1700026287000216870A8700846EE70B3
:103150003E707E70BE70FE7005F0CCFDD4F801307C
:103160002278184842EA03221749A4F10C031A6096
:10317000D5F801302A7842EA0322A4F108031A6044
:10318000D7F801303A7842EA0322231F1A601A1F47
:103190000096CDE901100D48111F02F073FC0B4899
:1031A00002F0CCFC094890F82B004007074803D5F3
:1031B000BDE8FE4002F0FEBCBDE8FE4002F0C4BC2B
:1031C00088000020898D0008754A0008A87000203A
:1031D00006480021044AC0E900218160C160016104
:1031E0004161816170470000002C01403C3F00209C
:1031F0000E48002110B50C4C0C224FF4965304607D
:10320000C0E90131C160C0E904128161C16101629C
:103210004162FFF796FD002805D0BDE810404F2120
:1032200003A001F06FB810BD00440040D87000202A
:103230002E2E2F5372632F75736172742E630000EC
:103240000E48002110B50C4C0C224FF4E133046001
:10325000C0E90131C160C0E904128161C16101624C
:103260004162FFF76EFD002805D0BDE810406421E3
:1032700003A001F047B810BD00480040487100208D
:103280002E2E2F5372632F75736172742E6300009C
:10329000090700284FEA116106DA00F00F0000F17B
:1032A000E02080F8141D704700F1E02080F8001441
:1032B000704730B585B00446372040220DF1080C28
:1032C000CDE9001000236946150120468CE82C004A
:1032D00000F008FB372141F28832204600F0C8F99F
:1032E00005B030BD30B50B4A85B0044629201143E6
:1032F00040220DF1080CCDE90010002369461501AC
:1033000020468CE82C0000F0EDFA204600F066FA2A
:1033100005B030BD0000108030B585B004461020E7
:103320000DF1080C8501CDE900104022694600230B
:1033300020468CE82C0000F0D5FA102141F28832AA
:10334000204600F095F905B030BD30B585B0044693
:10335000062040220DF1080CCDE90010002369463B
:10336000150120468CE82C0000F0BCFA062141F241
:103370008832204600F07CF905B030BD30B585B00C
:103380000546002469464FF480600094019402943D
:10339000CDE90340284600F0A5FA0B4A4FF4FA5055
:1033A00041F288311268B2FBF0F04843401E03D26C
:1033B0004FF0004005B030BD696B0906F6D540F20C
:1033C000FF512046A963F5E76400002070B508218D
:1033D000044685B04FF4D5704026CA018DE84300FD
:1033E00000256946CDE90352204600F07BFA0F4ADA
:1033F0004FF4FA5041F288311268B2FBF0F04843C2
:10340000401E02D24FF000450CE0616B11F0450FF9
:10341000F6D0606B400701D5042502E0606B4006E2
:1034200000D5A66305B0284670BD000064000020EA
:1034300030B585B00446122040220DF1080CCDE9CC
:10344000001000236946150120468CE82C0000F08E
:1034500049FA122141F28832204600F009F905B0FC
:1034600030BD30B585B00446112040220DF1080C66
:10347000CDE9001000236946150120468CE82C0098
:1034800000F030FA112141F28832204600F0F0F8C5
:1034900005B030BD30B585B0044640210DF1040CB7
:1034A0000720009200230D018CE82B00694620467E
:1034B00000F018FA072141F28832204600F0D8F8CF
:1034C00005B030BD10B586B0044600210220C022F0
:1034D00043020493CDE90010CDE90221694620465C
:1034E00000F000FA204600F051F906B010BD30B5EA
:1034F00085B0044609200DF1080CC022CDE900106A
:10350000002369464FF4806520468CE82C0000F0CB
:10351000E9F9204600F03AF905B030BD10B586B0A3
:103520000446002133204022CDE90221CDE90010DC
:10353000130169462046049300F0D4F9332141F287
:103540008832204600F094F806B010BD30B585B042
:1035500004460D2040220DF1080CCDE90010002397
:103560006946150120468CE82C0000F0BBF90D21BE
:1035700041F28832204600F07BF805B030BD30B50E
:1035800085B00C460021054603204022CDE90221EA
:10359000CDE90010130169462846049300F0A2F912
:1035A00003212246284600F039F905B030BD00005D
:1035B00010B586B0044600210C204022CDE902213E
:1035C000CDE90010130169462046049300F08AF902
:1035D000034A0C21204600F04BF806B010BD000055
:1035E00000E1F50530B585B00446192040220DF103
:1035F000080CCDE9001000236946150120468CE82F
:103600002C0000F06FF9192141F28832204600F0B9
:103610002FF805B030BD30B585B0044618204022E3
:103620000DF1080CCDE90010002369461501204674
:103630008CE82C0000F056F9182141F2883220461F
:1036400000F016F805B030BD70B50A6842624A68ED
:103650008262C46AD1E90225D1E9043624F0F70177
:103660002A4333431A431143C162002070BD000056
:1036700010B5444C4FF4FA532468B4FBF3F35343AE
:103680005B1E02D24FF0004010BD426B12F0450F9E
:10369000F6D0426B520703D504218163084610BD62
:1036A000426BD20702D00121816303E00269D2B2EA
:1036B0008A4201D0012010BD40F2FF5181630021F8
:1036C00000F0F2F83049084201D1002010BD002876
:1036D00002DA4FF0007010BD410001D5402010BD4E
:1036E000810001D5802010BDC10002D54FF480704B
:1036F00010BD010102D54FF4007010BD410102D58B
:103700004FF4806010BDC10102D54FF4006010BDC0
:10371000010202D54FF4805010BD410202D54FF492
:10372000005010BD810202D54FF4804010BDC1028F
:1037300002D54FF4004010BD410302D54FF40030D4
:1037400010BD810302D54FF4802010BDC10302D506
:103750004FF4002010BD010402D54FF4801010BDBD
:10376000410402D54FF4001010BD810402D54FF47E
:10377000800010BD000702D54FF4000010BD4FF4CB
:10378000803010BD6400002008E0FFFD124B4FF4B4
:10379000FA5141F288321B68B3FBF1F15143491EE3
:1037A00002D24FF000407047426B12F0450FF6D046
:1037B000416B490703D50421816308467047416B7B
:1037C000C90703D0012181630846704740F2FF51C9
:1037D0008163002070470000640000200E4B4FF40E
:1037E000FA5141F288321B68B3FBF1F15143491E93
:1037F00002D24FF000407047426B12F0450FF6D0F6
:10380000416B490703D5042181630846704740F2A4
:10381000FF518163002070476400002030B51F4DC8
:103820004FF4FA5341F288342D68B5FBF3F3634348
:103830005B1E02D24FF0004030BD446B14F0450FC8
:10384000F6D0436B5B0703D504218163084630BD86
:10385000436BDB0702D00121816303E00369DBB224
:103860008B4201D0012030BD40F2FF518163002125
:1038700000F01AF810F4604F04D0410406D54FF45C
:10388000005030BD000C1080002030BD000402D577
:103890004FF4805030BD4FF4803030BD64000020C4
:1038A000006800F003007047084408B51430009029
:1038B000006808BD70B511434268049EDDE90554F7
:1038C000334347F6FF6619432943B24321430A4372
:1038D0004260002070BD0321016000207047D0F8D5
:1038E0008000704770B50A688260C468D1E901251C
:1038F000D1E90336210B2A43334309031A43114309
:10390000C160002070BD0968C0F8801000207047B9
:103910002DE9F04F89B00E460446FDF763FD002700
:10392000009701970821834620683D46FFF7F4FC85
:10393000002835D1B4F8501020680904FFF7B9FC0D
:1039400000282DD14FF008084FF002094FF0010C6C
:10395000421E3023CDE90228CDE90439CDE9067CA9
:10396000206802A9FFF770FE2068FFF7D7FD002846
:1039700016D1EA4640F22A472068416B394212D1FB
:10398000416B890204D5FFF7AAFF4AF825006D1C98
:10399000FDF728FDA0EB0B00401CEDD14FF00040DF
:1039A00009B0BDE8F08F416B090703D5C0F8388036
:1039B0000820F5E7416B890703D5C0F8389002204D
:1039C000EEE7416B890603D5202181630846E7E7CE
:1039D00040F2FF518163009800BA7060019800BA0C
:1039E00030600020DCE710B590B004460120ADF84F
:1039F00038002068FFF754FF002864D0606C03286B
:103A000042D02068FFF75EFD00285AD120680021CF
:103A1000FFF74AFF606704212068FFF745FFA067B2
:103A200008212068FFF740FFE0670C212068FFF7BE
:103A30003BFF616CC4F88000032925D020680EA9E3
:103A4000FFF79DFD00283CD1606C03281CD0BDF819
:103A50003810216520680904FFF749FD002830D19E
:103A600020680021FFF720FF606604212068FFF72F
:103A70001BFFA06608212068FFF716FFE0660C21F7
:103A80002068FFF711FF206704212068FFF70CFF73
:103A9000000DE06403A92046FEF7FAFCB4F85000DC
:103AA000002302042068FFF7F5FC002809D104F187
:103AB000100007C88DE8070094E80F00FFF7FAFE32
:103AC000002010B010BD4FF08060FAE72DE9F843F8
:103AD0000025044600950068FFF750FC00281BD124
:103AE0002068FFF773FC4FF080784FF6FF76E0B167
:103AF0004FF08057A5640098B04200F1010000909B
:103B00001BD020680021FFF7D4FB20B920680021DA
:103B1000FFF7E8FB10B13846BDE8F88320680021C4
:103B2000FFF7C2FEC00FE6D020E00127A76400988F
:103B3000B04200F10100009001D14046ECE720685E
:103B40000021FFF7B6FB0028E6D120684FF0804146
:103B5000FFF7C8FB0028DFD120680021FFF7A4FE93
:103B6000C10FE4D0400001D5676400E06564002027
:103B7000D2E71CB504460020009000210190206887
:103B8000FFF792FE800102D54FF400601CBD69462C
:103B90002046FFF7BDFE0028F8D10198C0030CD5E0
:103BA000B4F8501020680904FFF783FB0028EDD11A
:103BB00020680021FFF7C9FB1CBD4FF080601CBDD1
:103BC0001CB5044600200090002101902068FFF7FA
:103BD0006BFE800102D54FF400601CBD6946204693
:103BE000FFF796FE0028F8D1019840030CD5B4F8F1
:103BF000501020680904FFF75CFB0028EDD1206815
:103C00000221FFF7A2FB1CBD4FF080601CBD00002D
:103C100010B5064C01202070FCF760FC18B9207824
:103C200020F001002070207810BD00006800002006
:103C3000144830B589B0154600780124C00702D079
:103C4000032009B030BD41B1012908D002290CD0B0
:103C5000032911D004242046F3E70024FBE768463B
:103C6000FCF72AFC069800240AE06846FCF724FCCE
:103C7000079800242880EEE76846FCF71DFC0798AB
:103C80002860E8E7680000202DE9F0411E4617464D
:103C90000A4C01250A4B084632463946FCF738FCE7
:103CA00028B109E0641E02D20120BDE8F081FCF7D2
:103CB00009FC0028F6D100252846F6E7A086010079
:103CC00000E1F50510B5064C01202070FCF7FAFB69
:103CD00018B9207820F001002070207810BD000075
:103CE000680000202DE9F0411E4617460A4C0125C8
:103CF0000A4B084632463946FCF71AFC28B109E05F
:103D0000641E02D20120BDE8F081FCF7DBFB002835
:103D1000F6D100252846F6E7A086010000E1F5056A
:103D2000FFF71AF9FFF700FA012001F051FFFBE756
:103D300002F0BAB8304870B5B4B0016841F08051B3
:103D40000160006800F0805032902C48016841F416
:103D50004041016000684FF4A021022500F440407A
:103D60003290012004238205D8240926CDE9275268
:103D7000CDE9210129A921A881E87800FEF79EF963
:103D800008B1C82122E0FDF7C1FC08B1CF211DE038
:103D90004FF480524FF4A05100242F94CDE93012FB
:103DA0000F20CDE92D0507212DA8FEF73FF808B11A
:103DB000DD210BE012481994129413941F9420945F
:103DC00000906846FDF7D8FC18B1EA210DA000F07C
:103DD00099FAFEF7FDF84FF47A71B0FBF1F0FEF7B7
:103DE000A6FE0420FEF797FE00220F21501EFDF7CD
:103DF0005BFC34B070BD00004038024000700040F1
:103E00008041A0002E2E2F5372632F6D61696E2E9C
:103E100063000000104A30B51048146800210F4BB1
:103E200044F470041460083305680D4A0D4C45F0E5
:103E30000105056019600368051D1340074A03600A
:103E40000C322C600568E305034C25F480250560E1
:103E5000803C1160236030BD88ED00E000380240F6
:103E6000FFFFF6FE103000240148FEF79EBE000062
:103E7000FC710020F0B5274B4FF0804E264D0268B4
:103E80009842264E264F274C09D0704507D0A842AD
:103E900005D0B04203D0B84201D0A04205D1D1F83C
:103EA00004C022F070024CEA020298421BD0704516
:103EB00019D0A84217D0B04215D0B84213D0A042B2
:103EC00011D0194DA8420ED0184DA8420BD0184D54
:103ED000A84208D0174DA84205D0174DA84202D0DD
:103EE000164DA84203D1CD6822F440722A434D6991
:103EF00022F080022A43026098428A68C2620A68FD
:103F0000826201D0A04201D10969016301214161AE
:103F1000F0BD000000000140000400400008004027
:103F2000000C0040000401400040014000440140FA
:103F30000048014000180040001C004000200040E4
:103F400090F82410C90706D00168836A4A6822F4F1
:103F500000321A434A6090F82410890706D5016898
:103F6000C36A4A6822F480321A434A6090F82410E7
:103F7000490706D50168036B4A6822F480221A4378
:103F80004A6090F82410090706D50168436B4A6817
:103F900022F400421A434A6090F82410C90606D55C
:103FA0000168836B8A6822F480521A438A6090F811
:103FB0002410890606D50168C36B8A6822F4005272
:103FC0001A438A6090F82410490611D50168036CE1
:103FD0004A6822F480121A434A60016CB1F5801FCE
:103FE00006D10168436C4A6822F4C0021A434A6051
:103FF00090F82410090606D50168826C486820F400
:10400000002010434860704738B500250446C56657
:10401000FDF7E8F903462068006800070BD56FF04C
:104020007E400090002220464FF4001100F038F945
:1040300008B1032038BD202084F8690084F8685056
:1040400084F86A00002038BD2DE9F04704468068F6
:10405000874B884F2668D4E90415E2690843D6F8EF
:1040600000C0102115430022284315460CEA030C1A
:10407000814B4CEA000CC6F800C04FF400492068A0
:10408000D4F80CC0466826F4405646EA0C06466052
:104090002668D4F82080A069D6F808C040EA080055
:1040A0002CF4306C4CEA000CC6F808C02068B8420A
:1040B0000AD11B6813F0030352D0012B7AD0022BD4
:1040C00076D0032B79D177E06C4EB0420AD11B68D1
:1040D00013F00C036AD0042B6CD0082B68D00C2B87
:1040E0006BD169E0664EB0420AD11B6813F0300311
:1040F0005CD0102B5ED0202B5AD0302B5DD15BE0F2
:10410000604EB0420AD11B6813F0C0034ED0402B62
:1041100050D0802B4CD0C02B4FD14DE05A4EB042E6
:104120000DD11B6813F4407340D0B3F5807F41D0AC
:10413000B3F5007F3CD0B3F5407F3ED13CE0534E19
:10414000B0420FD11B6813F4406309D0B3F5806F00
:1041500030D0B3F5006F2BD0B3F5406F2DD12BE0ED
:1041600001212AE04A4EB0420DD11B6813F440539E
:104170001CD0B3F5805F1DD0B3F5005F18D0B3F548
:10418000405F1AD118E0434EB04216D11B6813F4B9
:1041900040430BD0B3F5804F0CD04B4508D0B3F55E
:1041A000404F0AD108E005E002E0FFE7002104E00B
:1041B000022102E0042100E00821E6694E452AD1EF
:1041C00009291FD2DFE801F00508141E171E1E1E64
:1041D0001A00FDF703FF01E0FDF718FF0146D4F8D0
:1041E0000400490001EB5001B1FBF0F082B20AE09B
:1041F00029496068F6E7FDF721FFEFE760684FF4B3
:104200008031EFE70125216822F00F00C2F342025E
:104210001043C86028E0092925D2DFE801F005082D
:104220000B24102424241C00FDF7D8FE09E0FDF720
:10423000EDFE06E06168194A02EB51020EE0FDF75F
:10424000FDFE0146D4E9002001EB5001B1FBF0F086
:1042500080B2D06008E0616809EB5102B2FBF1F175
:1042600089B2C16000E001252846BDE8F087000062
:10427000F369FFEF00100140903802400044004015
:1042800000480040004C0040005000400014014035
:1042900000780040007C00400048E8010024F40061
:1042A0002DE9F041984617460E460446069D1DE04E
:1042B000681C1BD02DB1FDF795F8A0EB0800A842B3
:1042C00014D32168202000220B6823F4D0730B60E4
:1042D00021688B6823F001038B6084F8690084F8FF
:1042E0006A00032084F86820BDE8F0812068C06976
:1042F00036EA000004D00020B842D9D00020F3E70D
:104300000120F9E701A000F00DF8FEE74572726F99
:10431000722048616E646C6572206C61756E6368B2
:1043200065640A00014A024900F013B8D14A000846
:104330006001002002E008C8121F08C1002AFAD15B
:1043400070477047002001E001C1121F002AFBD115
:1043500070472DE9F04116460F460446002503E05C
:104360003946B047641C6D1C20780028F8D12846D7
:10437000BDE8F081054D4FF4FA7480212846FDF721
:1043800027F8204601F024FCF7E700000004024073
:1043900010B504464068804720682246BDE81040BA
:1043A000014902F093BB00009143000870B5054637
:1043B0000C4602F0E1FAA96809682160A9680C605E
:1043C000BDE8704002F0E4BA10B5044602F0D4FA39
:1043D000A1680C682CB122680A6002F0D9FA204664
:1043E00010BD02F0D5FA002010BD000070B50A4DD6
:1043F0000024064604EB440005EBC000017D29B112
:104400008068B04202D1204600F076F8641CE4B225
:104410000A2CEFD370BD00004C7200202DE9FC5F28
:104420000A270546DFF8CC9000208B463E463946E9
:104430003C4686460190009000EB400A0A2909EBB1
:10444000CA031A7D0AD0B2B165B1D5F800C0D3F85D
:104450000480C44506D140B2BDE8FC9F002AF3D1D8
:1044600041B208E0012A14D0022A04D35A8A7245C4
:1044700001D3964646B2401CC0B20A28DCD35FEA9C
:104480008B724FF0FF30E7D40A2913D015DACCB283
:1044900021E059F83A20002A5A8A05D0019B9A4215
:1044A000E9D344B20192E6E7009B9A42E3D347B2D4
:1044B0000092E0E75FEACB71CED00A2E01DAF4B2C7
:1044C00006E00A2F01DAFCB202E00A2CC4DAE4B2F8
:1044D000204600F011F82DB104EB4402296809EBE5
:1044E000C200416004EB4402002109EBC20260B249
:1044F0005182B1E74C72002070B5074C00EB4005CB
:10450000002654F8350018B101F043FE44F8356038
:1045100004EBC500067570BD4C7200202DE9FC4708
:104520000D00074648D07C684FF4807820884045CD
:104530003FD1207906283CD16079042839D16088A0
:10454000082836D1D4F80E0001906868A16920B11E
:10455000814202D10126334601E00026022328468B
:1045600004F1080201A9914600F0CEF9E088404527
:104570001FD1F6B1022001F0DBF8E08040F6060022
:10458000D4F80E1004F11203A1614A466968C4F818
:104590000E10A168C4F81210A189E182D5F8251087
:1045A000A160B5F82910A18139460090284600F095
:1045B0003BFA384601F0EDFDBDE8FC87FEB5044648
:1045C000106815460E46214600F04CFB08B1324BF0
:1045D0003BE02868C0F303110E2921D0D4E9012162
:1045E0000A400140914208D080B2A0F57E41A9392D
:1045F00003D0E06898B304F10C05284B28491A78D9
:1046000002EB420001EBC000077D022F2BD32F6885
:104610004068874227D13146204600F043F8FEBD6E
:1046200001228DF8042000208DF805005E218DF810
:104630000610687801AB00F07F008DF80700A878BD
:104640008DF80800E8788DF809004FF4006004F157
:10465000250231460090204600F0E6F9FEBDFFE756
:104660006FF00300FAE7002000EB400201EBC2020A
:10467000177D022F06D32F685268974202D1C2B22B
:104680001A70C8E7401C40B20A28EDDB32462946C2
:10469000204600F037F8E1E7AC9E00080801002052
:1046A0004C7200202DE9F84388460646144802EB78
:1046B000420100EBC10404F10C05207D022813D156
:1046C000608A0327B0F58E7F04D9211D304600F0A3
:1046D000D5F807E0B0F5877F06D3211D2A4630467E
:1046E00000F0D2F800B927754FF4006006F12502FA
:1046F0002B4641460090304600F096F9BDE8F8831D
:104700004C7200202DE9FC5F824614462530884615
:1047100001904FF0FF360868514600F0A3FAD0B977
:10472000D8F80000C0F303110E2914D0B8F1000F1F
:1047300011D080B1012152464046FFF76FFE0700BD
:104740000BD4DFF8A8B007EB47090BEBC905287DB0
:1047500028B144B10EE06FF00F00BDE8FC9FC5F832
:1047600008A0012129754146504600F087F8002C29
:104770000646F2D0287DD84602280DD31C484FF4B7
:10478000006105F10C0307705046019A0091214623
:1047900000F04AF9064627E0012825D12046017B92
:1047A00001290ED001890022022001F09EFB0500A4
:1047B00018D0214601F06DFC58B1284601F0E9FC03
:1047C00010E000680028EAD12546204601F0AEFD41
:1047D00045B158F8390008B101F0DBFC002648F873
:1047E000395001E04FF0FF363046B6E74C720020FA
:1047F000080100202DE9FF4F81B01F460026934697
:104800001C213246DDF838A00220DDE90F9801F0C6
:104810006CFB05002FD06C68119800F089FFE080D8
:104820004FF480713868A060B888A081D9F8002062
:10483000C4F81220B9F80400E0820820DAF8002059
:10484000C4F80E200622D8F80030A361042321808A
:1048500040F606016080227163715B460091294633
:10486000DDE9010200F0E0F8284601F092FC304654
:1048700005B0BDE8F08F4FF0FF30F9E7014A00F0D6
:1048800003B80000AC9E00087FB5064D0124031D4F
:10489000CDE90214CDE9003521331946FFF7AAFF0F
:1048A00004B070BDB29E000870B5164D5FF00004F4
:1048B00004EB440005EBC001087DF0B14A8A521CAC
:1048C00092B24A82B2F5967F0AD2012806D0032816
:1048D0000AD004280AD001280BD00EE0052A08D3FC
:1048E0002046FFF709FE08E0042000E002200875DA
:1048F00003E08868091DFFF7C1FF641CE4B20A2CBD
:10490000D6D370BD4C720020F8B50E001F46154678
:10491000044634D0306888B3214600F0A3F968BB60
:104920003078C0F303100E2829D02246394630468D
:10493000FFF774FD002820DB124A00EB4001022340
:1049400002EBC1000375002384602E68C660AE8848
:104950000682438252F8316076B142F831304FF42A
:1049600000602B4604F1250231460090204600F0FD
:104970005BF8304601F00DFC0020F8BDFFE76FF05A
:104980000F00FAE74C72002070B5044640890D46CE
:104990000E283CD9606801788689CA0714D001299D
:1049A00005D020490622FBF7ADFC48B10CE0417868
:1049B00051B980785E2807D1607B40F0100002E09A
:1049C000607B40F008006073082E6FF00D0103D08B
:1049D000B6F5C16F1BD10FE095F82B00000716D577
:1049E00060890E2813DB204601F01EFC78B92946A9
:1049F000204600F0FFF912E095F82B00000706D5DD
:104A000060890E2803DB204601F00EFC18B1204619
:104A100001F0BFFB03E029462046FFF77FFD0020A1
:104A200070BD0000AC9E00082DE9F0411E461746FF
:104A30000D468046069800F07BFE0E21044628466F
:104A400001F0F2FB18B16FF00100BDE8F081686879
:104A5000848131680160B18881803968C0F80610AE
:104A6000B98841814046D8F818202946BDE8F04170
:104A700010470000074A732110B54261064A82615F
:104A8000742280F82C1080F82D2000F007FD002003
:104A900010BD0000BD4500087D5600080B4E0446C1
:104AA0004FF0FF373946306801F0C8F90028F9D1D6
:104AB000204600F081FD0500F4D022692146904790
:104AC0000028F5D0284601F064FBF1E76C000020D7
:104AD00038B504468DF8000069460320ABBE204679
:104AE00038BD0A46032100F07DB800002DE9FE4FD5
:104AF0008A463B490446D1F8088098F80000000730
:104B0000870E142F67DB6089042864D360680078FF
:104B1000002860D008285ED1486901F11405C0F36F
:104B200003120E2A57D08946096800F09BF8002826
:104B300051D1208908284ED307F10E0120460E4698
:104B400001F072FB28B320890022384481B2022090
:104B500001F0CBF906003ED0718907F108008142CF
:104B60000ED370683A464146FBF7A8FB79423046BF
:104B700001F05AFB20B92146304601F08AFA18B1FB
:104B8000304601F006FB26E0204601F002FB3446E9
:104B900004E07142204601F047FBE0B966683946FF
:104BA000204601F041FBB0B9606800212A68FF2768
:104BB000C2600A46D9F81030036101233170718058
:104BC000077241812046CDE900133B462946CDF8C6
:104BD00008A000F0DDF92046BDE8FE4F01F0D9BA8B
:104BE0003C7300202DE9FF47924689460022064685
:104BF0002421012001F079F9050027D06C684FF0DD
:104C0000000877681C2284F8009084F801A0A4F8BA
:104C10000480A4F80680686871680830FBF74EFBD2
:104C2000F868039003A800F0E3FA60B1A4F80280EA
:104C30000122CDF80080FF23CDE901200021284684
:104C400003AA00F0A5F9284601F0A3FABDE8FF8702
:104C50000A460B21FFF7C6BFEFF30580002800D0FE
:104C600001207047421C12D088B191F82B20920786
:104C70000BD54A68824208D089680A4000EA0103DD
:104C8000934202D10143491C01D00020704701200A
:104C9000704700002DE9F74F86B005461427002421
:104CA00007986FF00506408C1438C11700EB51705F
:104CB000C0F3CF0B68680590017801F00F0105295A
:104CC00007D1C08800F034FD8104C0F30C000290CD
:104CD00003D5304609B0BDE8F08F288914381FFA93
:104CE00080F876E0B8EBCB0F01D34FEACB0080B26F
:104CF000039000221421022001F0F7F85FEA000A75
:104D00006ED0DAF8040014220599FBF7D7FADAF826
:104D10000400039E04902BE06889C01B84B2A64265
:104D200000D2344614B3052000F0A0FE5FEA00096B
:104D300053D0686802224B4621463844CDE900042E
:104D4000042001F060F90090F0B3284601F0EEFA7B
:104D500027495046C9E90415009901F07DF9301B37
:104D60000604360C06D02D680027D5E72D680027ED
:104D7000002ED1D10798418C381987B20298143986
:104D80004145C0F30C0001DA40F4005000F0D0FCC3
:104D900001460498C1800398143080B200F0C8FC2A
:104DA0000499002248805146049842810798089A45
:104DB00043699847504601F0ECF90398A8EB0002CC
:104DC000029800EB0B0100E00DE01FFA82F888B2B8
:104DD00002905FEA080085D17CE7504601F0D9F9DE
:104DE0004FF0FF3076E7484600F030FAF5E7000074
:104DF000855400082DE9F05F456806460F460421FA
:104E00002878B1EB101F03D0304601F0C2F989E0D9
:104E100000F00F004FF6FF7101EA8008688800F08B
:104E200087FC04463089A04203D92146304601F070
:104E300053FA71894145E7D33089A042E4D3B8F1F0
:104E4000140FE1D3DFF840A12969CAF81410C1F3A7
:104E50000312E9680E2ACAF8101014D0DFF82CB13A
:104E60003C464FF0010900BF94F82B00C00714D056
:104E7000616891B1DAF8140088421CD02146FFF72E
:104E8000F1FEC0B909E097F82B00C00703D078689D
:104E900008B13C460FE000240DE0B9F1000F04D04A
:104EA000DBF800404FF0000900E02468BC4200D16C
:104EB0002468002CD8D1DAF810003946FFF7D2FE6A
:104EC0000028A1D19AF81000D146C0F303100E2893
:104ED0009AD0002C98D0E88830F0C00005D0304639
:104EE00000F0BCF806001DD07568C8F10001C9F8D3
:104EF00008503046C9E900472A781207920EA9F8EF
:104F00000C2001F091F9687A012818D0062811D0F8
:104F100011280AD0D9F814004F462146FFF7A2FE07
:104F200090B11FE00020BDE8F09F3946304603F005
:104F30008DFF1AE03946304602F0F0F815E03946A8
:104F40003046FFF7D3FD10E0387DC0F303100E2884
:104F500008D04146304601F06AF9022130467560BA
:104F6000FFF7BFFD304601F014F90021C9F8001029
:104F7000C9F80410C9F80810A9F80C10C9F81010E5
:104F8000C9F81410CEE700003C730020580100203F
:104F9000FEB5DDE90954089E1AB109B10F6807B9D9
:104FA000211D0096CDE9015400F002F8FEBD00007D
:104FB0002DE9F84F16001F4689460546DDE90BA886
:104FC000DDF828B02ED0142101F02EF918B16FF0C1
:104FD0000100BDE8F88F6C684520277284F809A0AD
:104FE00031682161207084F801B0288900F0A0FBAD
:104FF000184F4FF0000A6080A4F806A0388800F02F
:1050000097FBA080B9F1000F388800F101003880CB
:1050100005D0D9F80000E060A4F80AA006E00E4828
:105020000068F8E768686E4600690090B8F82200EA
:1050300040B12989814205D9324641462846FFF7C9
:1050400029FEC6E7D8F8143040463246294698472C
:10505000BFE7000006010020249F00082DE9F05F53
:1050600045688346287800F00F0005287ED1E8883F
:1050700000F05EFBC0044FEA1049688800F058FB5E
:10508000297801F00F01494200EB81001FFA80F8F6
:10509000584600F0F5FF554E07463188C8190A28D2
:1050A00009D93946284600F097F900285ED03088A3
:1050B00038440A285AD874684FF0000A0CE0606936
:1050C000E968884207D1A0692969884203D1A0898B
:1050D000A988884203D02468002CF0D106E02CB1C6
:1050E000E88800F025FBC0041DD027E0042000F074
:1050F000BDFC04000AD13946284600F06DF9B842DB
:105100006EDB042000F0B2FC040069D02021FBF724
:10511000EEF80320E07770681422206004F10800A4
:105120002946746008E0E08900F002FBC00405D065
:105130001422294604F10800FBF7C0F830883844EF
:105140003080A879800606D4A27F09EB0800A083EE
:1051500042F00101A1775946204600F07BF8002873
:105160003CD0A08B1430A083606800E038E0456834
:10517000142204F1080128462F68FBF79FF8A08B42
:1051800000F0D6FA01466980A5F806A06FF0130971
:10519000A5F80AA0D4F8048009E07D68494638469D
:1051A00001F042F83946404600F056FF2F68002FC4
:1051B000F3D171688C4205D1002105E00868A04256
:1051C00002D001460029F9D1204600F0BBF8404644
:1051D00000F056FF3188081A30804046BDE8F09F45
:1051E000584600F0D6FF0020F8E70000FC00002041
:1051F00070B50446134813E090F82B10CA070FD07F
:105200004A070DD543685BB182682568134005EAFB
:1052100002069E4214D0890702D4C1688D420FD085
:1052200000680028E8D10848006840B190F82B10C9
:10523000CA0704D0490702D54168002900D10020DF
:1052400070BD0000580100205C01002001460520CF
:1052500000F0DABB2DE9F047D1F8048000240126E4
:105260000D460746B8F8020000F062FA014698F8C9
:10527000000000F00F00404201EB8009B8F8060082
:1052800000F056FAC0040021020C686802EB090322
:105290001FFA83F801608280A0F806807B681DE019
:1052A0005968B1F804C062450DD2036044B1B4F846
:1052B00006C0624538D38988884535D8256000E026
:1052C0007D606BB115E02FD0CB889A422CD31CB1F6
:1052D000E388634500D000260B680C46002BDFD125
:1052E00034B12560E1888288914202D0002600E036
:1052F0007D60B97FC90715D08EB1796849B1496819
:10530000898831B9026808E05168C0888A8890426B
:1053100001D0002603E00A680846002AF4D130468E
:10532000BDE8F0870020FBE7284600F0A9FE014613
:1053300003480288511A0180284600F02AFFF1E74D
:10534000FC000020074B0A4630B401685C688442C8
:1053500001D1596000E01160014630BC042000F02A
:1053600053BB0000FC0000202DE9F04145680646D3
:10537000884600246868818891B9006814227060AA
:1053800006F108016868FAF799FF01212846FFF73E
:105390005FFC284600F074FE0446284600F0F9FE43
:1053A00075680AE068682F460568384600F068FEB0
:1053B000204484B2384600F0ECFE002DF2D1414684
:1053C0003046FFF7BFFF03480188091B01802046D4
:1053D000BDE8F081FC0000202DE9F0471D4F0024BE
:1053E000894606460022134611467868154622E093
:1053F000D0F814C0D6F80C80C4450BD1D0F818C032
:10540000D6F81080C44505D1B0F80CC0B6F80480B9
:10541000C44509D06D1C2AB190F81FC092F81F80B6
:10542000C44501D802461946D0F800C0BCF1000FAF
:1054300000D0034660460028DAD11AB11046FFF7C3
:1054400093FF04444C4501DA012DCBDC2046BDE836
:10545000F0870000FC000020094870B50025446872
:105460000BE0E07F20B1401EE0772546246804E091
:10547000204624682946FFF777FF002CF1D170BD44
:10548000FC00002010B50446406908B100F081FE20
:105490002046BDE81040FFF7D9BE000070B5404E71
:1054A0008AB004463F490120002500958022C6E9C4
:1054B00000103582E1238DF80450C1058DF80520D8
:1054C00001AA8DF806308DF808508DF807508DF838
:1054D0000950C6E90520C6E907513046FBF7EAFB4B
:1054E00028B994F82B0040F0040084F82B002E4AD1
:1054F00004232E492A48FBF719FB2C4A0423284889
:105500008032A2F58071FBF7D6FA062184F82410C8
:10551000716940F2DC50097884F825107169497886
:1055200084F826107169897884F827107169C97820
:1055300084F828107169097984F82910716949790A
:1055400084F82A100121608494F82B0040F00A00AE
:1055500084F82B0008A8089500F034FC14491422A4
:10556000086003A81349FAF7A9FE03A8214600F032
:10557000A5FC0B48FBF736FD09480B216A46FBF7F3
:10558000E7FC00980B2140F00B0205480092FBF766
:10559000F5FD03480B216A46FBF7DAFC0AB070BD43
:1055A00060700020008002409058002040400020A1
:1055B0006C000020709E00082DE9F84F0020044682
:1055C00000902D48FBF7F5FA10B10020BDE8F88FE8
:1055D0002948818FD0F840900904090C31D003226A
:1055E000042000F082FC009058B3234840F2F45BA2
:1055F000009DD0F8308000276E8913E06B68A4F21C
:10560000F4504242D81909EB0401FAF757FED8F8D2
:105610000C003F1B0024AAF2F4568046D0F80890F4
:1056200007F2F45706EB040ADA45E7D86A6809EB93
:105630000401D0193246FAF741FE2D683444002D9A
:10564000D9D10D480022016B05E00B6843F00043FF
:105650000B60C968521C836B9342F6D800218163AA
:10566000006800F580504269120602D5802242612E
:1056700081600098AAE70000607000202DE9F05FCB
:1056800029484FF0000B0D465C46C66AD6F808A0C4
:1056900035E03068002811DB6F894FF000081DE00D
:1056A0006B68A4F2F45042420AEB040003EB0801D9
:1056B000FAF704FEF6683068002802DA6FF0070097
:1056C00024E0D6F808A0A8EB0401ABEB040001F23B
:1056D000F4580024A9F2F45700F2F45B40F2F451BC
:1056E00007EB04098945DBD86A680AEB040002EB82
:1056F00008013A46FAF7E2FD2D683C44BB44002D10
:10570000C7D109485946FBF7AFFC00200649096894
:1057100001F580514A69920603D520234B6100228E
:105720004A60BDE8F09F00006070002000BA70473A
:1057300040BA704710B501F05DF900F067F800F06D
:105740006FF900F0C9F903F07FFB01F0E5FCBDE85B
:10575000104001F003BA000086B0FBF727FFFEF708
:10576000E9FAFDF71BFCFDF76BFDFDF7CBFBFDF741
:105770003FFDFDF72DFDFDF79DFCFDF757FBFDF708
:105780008BFB08A0FEF7CEFD074914226846FAF706
:1057900095FD0021684600F091FBFDF7EBFB00F062
:1057A0001EFAFEE70A000000989E000884280146C1
:1057B0004FF0000000D0C81C7047000070B5040016
:1057C00020D0114D2868844202D36868844205D3F2
:1057D00001F0D2F8BDE8704001F0DAB80A480C30A8
:1057E00001F044F9A4F1080000210171A968884280
:1057F00000D2A86000F0A8FD0348BDE870400C305E
:1058000001F047B970BD0000440100200C484FF47E
:10581000C8630C4A20F0030030B40024106000F587
:10582000C861038001254480047151600D710B80B3
:105830004B80906002F10C0030BC01F01CB90000FC
:10584000DEA30020440100202DE9F04100280DD006
:10585000C01C4FF6FC7100EA01040C2C4FF4C86622
:1058600001D20C2404E0B44202D90020BDE8F0814A
:10587000294801F0FBF8284BC4F5C8670C3B9A682F
:105880001968501A80B240E00D1895F804C0BCF1B8
:10589000000F39D1B5F800C0ACEB000CACF1080C2E
:1058A000A44531D32F8804F1140E4FF0010C3F1A98
:1058B000083F774515D304444FF0000E0834A7B2D3
:1058C000CC1984F804E0B5F800E0A4F800E06080AA
:1058D0002F8085F804C02088B04204D08C1C075368
:1058E00001E085F804C0954208D1586801E01288AB
:1058F0000A4414790CB18242F9D19A60064801F049
:10590000C8F805F10800B1E7085A8742BCD8024838
:1059100001F0BFF8A9E70000500100202DE9F04791
:10592000C91C06464FF6FC7001EA00040C2C4FF42B
:10593000C86901D20C2401E04C4517D831480168F0
:105940008E4202D34268964204D301F015F801F06A
:105950001FF810E0A6F108058246691A8FB2288860
:10596000C01B08381FFA80F8444503D94FF00000E7
:10597000BDE8F08701D13046FAE7224800F10C007B
:1059800001F074F82A880023DAF80010504602EB80
:10599000010C9CF80420E2B104F11402424513D832
:1059A0003A19D0F808C0083294B20A19624501D2F7
:1059B000CAF8082013712888108057802C8010881E
:1059C000484501D0891C44520E480C3001F061F862
:1059D000D1E73A19D0F808800832BCF8004092B2FA
:1059E000E04503D101EB020CCAF808C08818037126
:1059F000048047802A8000884845E5D0891C4252AF
:105A0000E2E70000440100200D2806D2002904D05E
:105A1000024A52F82000FEF7C9BC7047C49F000834
:105A200030B5064D5FF0000455F8240000F008F88A
:105A3000641CA4B20D2CF7D330BD0000C49F000835
:105A40008268002111600A464168C91C21F00301E7
:105A500007E08368521C1B680B6083681960038829
:105A6000194443889342F4DC704700000D2801D3A9
:105A700000207047024951F82000FEF7A5BC000045
:105A8000C49F00082DE9F0410446124D00204FF05C
:105A9000030C069FDDE907866060A060E06084F883
:105AA0002B0084F820C0E761287884F82E00471C7A
:105AB0002F702046266100F01DF841462046884799
:105AC00010B10020BDE8F0816868206020466C605D
:105AD000F8E70000540100207047C90709D0416869
